:100000000C942A001895000018950000189500001F
:10001000189500001895000018950000189500002C
:10002000189500001895000018950000189500001C
:10003000189500001895000018950000189500000C
:1000400018950000189500001895000018950000FC
:10005000189500008FE58DBFC0E2E8EB4E2E88E0DA
:100060008EBFD8E0F7E05F2EA89584B7082E877F73
:1000700084BF88E1992781BD91BDEEEFF7E0A0E64E
:10008000B0E088278D933197E9F7662401080800CE
:1000900000000000000000000000065F06000000F5
:1000A000000703000703000000247E247E240000D4
:1000B00000242B6A12000000006313086463000030
:1000C00000364956205000000000070300000000E1
:1000D00000003E41000000000000413E0000000022
:1000E00000083E1C3E0800000008083E080800000A
:1000F0000000E06000000000000808080808000098
:1001000000006060000000000020100804020000F1
:10011000003E5149453E00000000427F4000000083
:100120000062514949460000002249494936000011
:10013000001814127F100000002F494949310000B7
:10014000003C4A49493000000001710905030000E4
:10015000003649494936000000064949291E000079
:1001600000006C6C000000000000EC6C000000005F
:10017000000814224100000000242424242400004C
:100180000000412214080000000201590906000085
:10019000003E415D551E0000007E1111117E0000E1
:1001A000007F494949360000003E4141412200009C
:1001B000007F4141413E0000007F49494941000024
:1001C000007F090909010000003E4149497A000009
:1001D000007F0808087F00000000417F4100000008
:1001E00000304040403F0000007F081422410000E2
:1001F000007F404040400000007F0204027F00007A
:10020000007F0204087F0000003E4141413E0000A3
:10021000007F090909060000003E4151215E0000EF
:10022000007F09091966000000264949493200008B
:100230000001017F01010000003F4040403F0000FD
:10024000001F2040201F0000003F403C403F0000B6
:10025000006314081463000000070870080700001A
:10026000007149454300000000007F41410000004B
:100270000002040810200000000041417F0000003F
:100280000004020102040000808080808080808061
:1002900000000307000000000020545454780000C0
:1002A000007F44444438000000384444442800009F
:1002B00000384444447F000000385454540800007F
:1002C00000087E09090000000018A4A4A47C000016
:1002D000007F0404780000000000007D4000000062
:1002E000004080847D000000007F10284400000052
:1002F0000000007F40000000007C0418047800002B
:10030000007C0404780000000038444444380000B5
:1003100000FC4444443800000038444444FC0000DD
:10032000004478440408000000085454542000009D
:1003300000043E4424000000003C40207C000000FB
:10034000001C2040201C0000003C6030603C00008D
:10035000006C10106C000000009CA0603C000000CD
:10036000006454544C00000000083E41410000006D
:100370000000007700000000000041413E0800003E
:100380000002010201000000003C2623263C000080
:10039000001EA1E121120000003D40207D00000070
:1003A0000038545455090000002055555578000078
:1003B0000020555455780000002055555478000011
:1003C0000020575557780000001CA2E222140000BC
:1003D00000385555550800000038555455080000A0
:1003E00000385555540800000000017C4100000011
:1003F00000000279420000000000017C4000000083
:10040000007029242970000000782F252F78000023
:10041000007C5454554500000034547C545800006E
:10042000007E097F49490000003845453900000039
:1004300000384544390000000039454438000000C8
:10044000003C41217D000000003D41207C00000077
:10045000009CA1603D000000003D42423D000000C4
:10046000003C41403D0000000018246624000000CC
:1004700000483E494962000000292A7C2A290000E0
:10048000007F0916781000000040887E09020000F5
:1004900000205455557800000000007D4100000008
:1004A0000038444539000000003C40217D00000038
:1004B000007A090A71000000007A11227900000018
:1004C00000085555555E0000004E51514E00000089
:1004D0000030484D40200000003C040404040000AB
:1004E00004040404041C00000017084C6A500000B7
:1004F000001708342A7800000000307D300000002A
:10050000000814000814000000140800140800007B
:100510004411441144110000AA55AA55AA550000DF
:10052000BBEEBBEEBBEE0000000000FF00000000D1
:10053000080808FF000000000A0A0AFF0000000087
:1005400008FF00FF0000000008F808F800000000A5
:100550000A0A0AFE000000000AFB00FF000000007B
:1005600000FF00FF000000000AFA02FE0000000089
:100570000A0B080F00000000080F080F0000000021
:100580000A0A0A0F00000000080808F8000000002E
:100590000000000F080800000808080F0808000005
:1005A000080808F808080000000000FF080800001C
:1005B0000808080808080000080808FF08080000E4
:1005C000000000FF0A0A000000FF00FF080800000A
:1005D000000F080B0A0A000000FE02FA0A0A0000D7
:1005E0000A0B080B0A0A00000AFA02FA0A0A0000BB
:1005F00000FF00FB0A0A00000A0A0A0A0A0A0000B1
:100600000AFB00FB0A0A00000A0A0A0B0A0A000099
:10061000080F080F080800000A0A0AFA0A0A000070
:1006200008F808F808080000000F080F0808000084
:100630000000000F0A0A0000000000FE0A0A000085
:1006400000F808F80808000008FF00FF080800008C
:100650000A0A0AFB0A0A00000808080F0000000046
:10066000000000F808080000FFFFFFFFFFFF000088
:10067000F0F0F0F0F0F00000FFFFFF0000000000DD
:10068000000000FFFFFF00000F0F0F0F0F0F000013
:10069000001824241824000000FE4A4A34000000F8
:1006A000007F01010300000000027E027E020000C4
:1006B0000063554963000000001824241C04000056
:1006C00000FC20201C00000000080478040000004A
:1006D0000008557755080000003E49493E000000DB
:1006E000004C7202724C000000225559300000008C
:1006F00000182418241800000018247E2418000074
:10070000001C2A2A2A000000003C02023C000000D3
:10071000002A2A2A2A0000000000242E24000000BB
:1007200000514A4A4400000000444A4A5100000077
:10073000000000FC020400000020403F0000000018
:100740000008082A080800000024122412000000F3
:10075000000609090600000000001818000000004B
:1007600000000800000000000030403E02020000CF
:1007700000010E010E00000000090D0A000000003B
:10078000003C3C3C3C00000077B37F6377BB0E9499
:10079000020BECE8F0E0A0E6B0E0ED93FC930E94E1
:1007A000D1030E9430050E947F0708950E94E30351
:1007B0008AE090E00E94F30A0E94FB038AE090E046
:1007C0000E94F30A0895D09AD198D29AD398D89AD1
:1007D000D998DA98DB9886E886B980E087B9379AA5
:1007E00007B1007E016007B90E94A50CA5E6B0E044
:1007F0008D939C930895D098D19AD298D39AD898F3
:10080000D99ADA98DB9886E886B980E087B9379A72
:1008100007B1007E026007B90E94A50CA7E6B0E010
:100820008D939C9308950E946D0BAA81BB814C917E
:10083000A881B9815C919FEF0E94CB0BAA81BB81FB
:100840004C914F5FA881B9815C919FEF0E94CB0BC7
:10085000AA81BB814C91A881B9815C915F5F9FEFB8
:100860000E94CB0BAA81BB814C914F5FA881B981BB
:100870005C915F5F9FEF0E94CB0B089580E090E05A
:10088000D2018D939C9382E00E94950C80E090E0D1
:10089000D2018D939C9382E00E94950C0E941304D8
:1008A000249684E00E94910C0E94D603A5E6B0E055
:1008B0000D911C91023350E0150718F011F00C94C3
:1008C00063040C94540482E390E00E94F30A0E94B3
:1008D000D603A5E6B0E08D919C91ADE6B0E08D9396
:1008E0009C93A7E6B0E08D919C91A5E7B0E08D9335
:1008F0009C930E946D0B85E08093620081E0809361
:10090000630080E080936400E6E0FCE10E94E10A7D
:100910000E94D603A5E6B0E00D911C91023350E091
:10092000150708F0F5CF08958EE790E0D2018D937A
:100930009C9382E00E94950C80E090E0D2018D9320
:100940009C9382E00E94950C0E941304249684E0FC
:100950000E94910C0E94D603A5E6B0E00D911C9177
:10096000023350E0150718F011F00C94B9040C9400
:10097000AA0482E390E00E94F30A0E94D603A5E64F
:10098000B0E08D919C91AFE6B0E08D939C930E9476
:100990006D0B85E08093620081E08093630080E0CE
:1009A00080936400E6E0FCE10E94E10A0E94D60325
:1009B000A5E6B0E00D911C91023350E0150708F058
:1009C000F5CF089580E090E0D2018D939C9382E072
:1009D0000E94950C8EE390E0D2018D939C9382E06F
:1009E0000E94950C0E941304249684E00E94910CAE
:1009F0000E94D603A7E6B0E00D911C91023350E0AF
:100A0000150718F011F00C9407050C94F80482E314
:100A100090E00E94F30A0E94D603A7E6B0E08D9111
:100A20009C91A7E7B0E08D939C930E946D0B85E0AD
:100A30008093620081E08093630080E08093640093
:100A4000E6E0FCE10E94E10A0E94D603A7E6B0E0DE
:100A50000D911C91023350E0150708F0F5CF089571
:100A60000E943E040E9494040E94E204AFE6B0E0BB
:100A70004D915C91ADE6B0E00D911C910417150706
:100A800018F011F00C9446050C946A05ADE6B0E040
:100A90000D911C91AFE6B0E04D915C91041B150BDC
:100AA000A9E7B0E00D931C93EEEFFBE10E94F20D7D
:100AB000E9E7F0E0D190E080FF2400270E946F0D6D
:100AC0000E949C0DEDE0F0E0A9E6B0E00E94C20CAF
:100AD0000C948C05AFE6B0E00D911C91ADE6B0E052
:100AE0004D915C91041B150BA9E7B0E00D931C938D
:100AF000EEEFFBE10E94F20DE9E7F0E0D190E0803B
:100B0000FF2400270E946F0D0E949C0DEDE0F0E095
:100B1000A9E6B0E00E94C20CA7E7B0E04D915C915D
:100B2000A5E7B0E00D911C910417150718F011F01E
:100B30000C949C050C94C005A5E7B0E00D911C91A8
:100B4000A7E7B0E04D915C91041B150BA9E7B0E05D
:100B50000D931C93E2E0FCE10E94F20DE9E7F0E066
:100B6000D190E080FF2400270E946F0D0E949C0D11
:100B7000EDE0F0E0A1E7B0E00E94C20C0C94E205C9
:100B8000A7E7B0E00D911C91A5E7B0E04D915C9115
:100B9000041B150BA9E7B0E00D931C93E2E0FCE108
:100BA0000E94F20DE9E7F0E0D190E080FF240027F9
:100BB0000E946F0D0E949C0DEDE0F0E0A1E7B0E017
:100BC0000E94C20C0895A1E8B0E08C9187FB16F05A
:100BD0000C94F90580E08A9380E08A9380E08A9300
:100BE000E6EEF3E18827809364000E94FA0B0C94F0
:100BF000060680E08A9380E08A9380E08A93E2E5AB
:100C0000F2E18827809364000E94FA0B0895AA817C
:100C1000BB810C91063110F00C944106A881B9817A
:100C20000C91063110F00C9417060C943F06A88125
:100C3000B9810C910A3210F00C9422060E94F4063D
:100C40000C943F06A1E8B0E08C9187FB882780F9DF
:100C5000809580FBA1E8B0E08C9187F98C930FEF31
:100C600040917F00041BAFE7B0E00C930FEF409181
:100C70008000041BA0E8B0E00C930E94E3050C94F4
:100C80006006A881B9810C91063110F00C944E06D3
:100C90008091800080937F000C946006A881B981C8
:100CA0000C910A3210F00C945E060FEF4091800018
:100CB000041BAFE7B0E00C930C9460060E94E305C0
:100CC0000E94D603A7E6B0E00D911C91023350E0DC
:100CD000150708F0F5CF0895AA81BB814C91A88132
:100CE000B9815C9190917F000E94CB0BAA81BB815E
:100CF0000C914EE2041BA6EEB2E00C930091E602CA
:100D000048E00E94E40CA8EEB2E08C93A6EEB2E0BC
:100D10000C9148E00E94E40C0C93A881B9810C91DD
:100D200041E0041BA7EEB2E00C93409180000091DB
:100D30007F00041711F00C94C90668948091E802B2
:100D40005A01A6EEB2E04C9155274A935A9340E0DF
:100D50004A93A7EEB2E04C9155274A935A9341E04B
:100D60004A9372E04AE755E14A935A93A5010E94DB
:100D70004A0CA2E8B0E0AA0DBB1D0E94BC0C0E9468
:100D8000B20C0C9016F0092201C0082A0C920C94A7
:100D9000F306E8948091E8025A01A6EEB2E04C9185
:100DA00055274A935A9340E04A93A7EEB2E04C91FC
:100DB00055274A935A9341E04A9372E04AE755E136
:100DC0004A935A93A5010E944A0CA2E8B0E0AA0DEA
:100DD000BB1D0E94BC0C0E94B20C0C9016F00922A4
:100DE00001C0082A0C9208958EE28093E4020091DB
:100DF000E4020E3718F011F00C947E070091E40223
:100E00004EE2041BA6EEB2E00C930091E60248E02D
:100E10000E94E40CA8EEB2E08C93A6EEB2E00C9136
:100E200048E00E94E40C0C9302E04091E8020E942A
:100E3000F40CA8EEB2E00C9381E08093E5020091FF
:100E4000E5020E3318F011F00C9476070091E502DC
:100E500041E0041BA7EEB2E00C935A01A6EEB2E00B
:100E60004C9155274A935A9340E04A93A7EEB2E03B
:100E70004C9155274A935A9341E04A9372E04AE7CE
:100E800055E14A935A93A5010E944A0CA2E8B0E0AA
:100E9000AA0DBB1D0C914091E8020423A7EEB2E01D
:100EA0000C934091E7020091E802041781E009F0F9
:100EB00080E08F930091E502043181E008F080E04A
:100EC0009F91892B882311F40C946E074091E402C2
:100ED0005091E502909180000E94CB0BA5EEB2E00C
:100EE0008C918F5F8C9310F40C941F07A4EEB2E0EA
:100EF0008C918F5F8C9310F40C94F70608950E94E8
:100F00006D0B8FEF80937F008FEF80938000709147
:100F100081007F77709381000E94E30580E08093D9
:100F2000E4020091E4020A3018F011F00C94D107A9
:100F300080E08093E5020091E5020D3318F011F096
:100F40000C94C90787E05A01A4EEB2E04C915527F2
:100F50004A935A9340E04A93A5EEB2E04C9155274C
:100F60004A935A9341E04A9372E04AE755E14A9323
:100F70005A93A5010E944A0CA2E8B0E0AA0DBB1D3D
:100F80008C93A5EEB2E08C918F5F8C9310F40C944F
:100F90009B07A4EEB2E08C918F5F8C9310F40C94BD
:100FA00091070E94D603AFE6B0E04D915C91ADE6AB
:100FB000B0E00D911C910417150710F00C940A086D
:100FC000A5E6B0E00D911C91ADE6B0E04D915C91CD
:100FD000041B150BA9E7B0E00D931C93E9E6F0E0C4
:100FE0000E94160DE9E7F0E0D190E080FF24002791
:100FF0000E946F0D0E949C0DEDE0F0E0ABE7B0E0C9
:101000000E94C20CEBE7F0E00E94210DA5E6B0E0E3
:10101000DD92EC92ADE6B0E04D915C91AFE6B0E0D0
:101020000D911C910417150710F00C944D08A5E6BE
:10103000B0E00D911C91AFE6B0E04D915C91041BC6
:10104000150BA9E7B0E00D931C93E9E6F0E00E94D0
:10105000160DE9E7F0E0D190E080FF2400270E9420
:101060006F0D0E949C0DEDE0F0E0ABE7B0E00E9458
:10107000C20CEBE7F0E00E94210DA5E6B0E0DD92A6
:10108000EC9200E810E0A5E6B0E04D915C91041B05
:10109000150BA5E6B0E00D931C93A7E7B0E04D91CA
:1010A0005C91A5E7B0E00D911C910417150710F0B5
:1010B0000C948408A7E6B0E00D911C91A5E7B0E080
:1010C0004D915C91041B150BA9E7B0E00D931C93A7
:1010D000E1E7F0E00E94160DE9E7F0E0D190E08052
:1010E000FF2400270E946F0D0E949C0DEDE0F0E0B0
:1010F000ABE7B0E00E94C20CEBE7F0E00E94210DEC
:10110000A7E6B0E0DD92EC92A5E7B0E04D915C91EE
:10111000A7E7B0E00D911C910417150710F00C948F
:10112000C708A7E6B0E00D911C91A7E7B0E04D918C
:101130005C91041B150BA9E7B0E00D931C93E1E74C
:10114000F0E00E94160DE9E7F0E0D190E080FF2486
:1011500000270E946F0D0E949C0DEDE0F0E0ABE7D0
:10116000B0E00E94C20CEBE7F0E00E94210DA7E680
:10117000B0E0DD92EC9200E410E0A7E6B0E04D9123
:101180005C91041B150BA7E6B0E00D931C93A5E63C
:10119000B0E00D911C910F3750E0150781E008F089
:1011A00080E08F93A7E6B0E00D911C910F3350E0E3
:1011B000150781E008F080E09F9189238F93A7E6CF
:1011C000B0E00D911C91003050E0150780E010F068
:1011D00009F081E09F918923882311F40C9424095C
:1011E000A5E6B0E00D911C910D3250E0150710F00E
:1011F0000C94100980916500D2018C9381E00E94CB
:10120000950C80916700D2018C9381E00E94950C2F
:101210000E940706249682E00E94910C0C942409F7
:1012200080916500D2018C9381E00E94950C8091A1
:101230006700D2018C9381E00E94950C0E946C069D
:10124000249682E00E94910C0C94D1070895F894A2
:10125000FFCF408000AA0100FEAA03FE02AA0702F7
:10126000FEFA02FEAA01FEFCF8F000AA080080C007
:10127000603090C4CE1E3E7CF87000FF01AA510180
:10128000FF00AA0100FFAA01FF07AA010706AA0A98
:101290000607AA0207FFAA01FF00AA01008020306A
:1012A00098CCE673399CCE6733190C060300AA0369
:1012B00000FF00AA5100FF00AA01001FAA011F1091
:1012C000AA0F101FAA011F00181F0F0C0D090006FE
:1012D000030100AA01008000AA0700FF00AA510034
:1012E000FF00AA0100FEAA03FE3E9EDCD8AA09D890
:1012F000D0C0AA01C000AA040080C06070F8FCFE43
:10130000FFAA02FFFEFCF8F0E04000FF00AA510037
:10131000FF00AA01003F1F67787FAA0C7F3F0701EB
:1013200000081C3E73E1C080AA0280C1C3E7FF9F92
:101330008F87838180AA018000FF00AA5100FF00EF
:10134000AA0300804020AA012010AA0110183878B2
:10135000F8F0AA01F0E0AA01E0C08000AA02004073
:10136000E0F0F8F0E1C18101AA030181C1E1F1F9E6
:10137000F1E14100FF00AA5100FF00AA010030CEB8
:101380000100AA080003FFAA05FF7000AA020001DD
:101390000387CFFFAA02FFFEAA01FEFFAA02FFCF2A
:1013A00087030100AA0200FF00AA5100FF00AA0261
:1013B000000106081020AA02206070787C3FAA0273
:1013C0003F1F0F070300AA0100081C3E7F3F1F0FAD
:1013D000070301AA010103070F1F3F7F3E1C0800FE
:1013E000FF80AA5180FF4080FFAA01FF01AA0301EC
:1013F000FDAA07FD0105FD01AA010103070FFFAAD0
:1014000008FF7F3F9FCF6F3B31E1C183078FFF0014
:10141000FEAA51FE00FFAA01FF00AA0100F8AA01DE
:10142000F8F9AA0AF9F8AA02F800AA0100FFAA012D
:10143000FF7FDFCF6733198CC6633198CCE6F3F9B1
:10144000FCFFAA03FF00FFAA51FF00FFAA01FFE073
:10145000AA01E0EFAA0FEFE0AA01E0FFE7E0F0F356
:10146000F2F6FFF9FCFEFFAA01FF7FFFAA07FF00CB
:10147000FFAA51FF00FFAA01FF01AA0301C16123D6
:1014800027AA09272F3FAA013FFFAA04FF7F3F9FFA
:101490008F07030100AA02000103070F1FBFFF000F
:1014A000FFAA51FF00FFAA01FFC0E0988780AA0CA5
:1014B00080C0F8FEFFF7E3C18C1E3F7FAA027F3E8B
:1014C0003C18006070787C7E7FAA017FFF00FFAA35
:1014D00051FF00FFAA03FF7FBFDFAA01DFEFAA01D0
:1014E000EFE7C787070FAA010F1FAA011F3F7FFF62
:1014F000AA02FFBF1F0F070F1E3E7EFEAA03FE7E3D
:101500003E1E0E060E1EBEFF00FFAA51FF00FFAAE0
:1015100001FFCF31FEFFAA08FFFC00AA05008FFFE4
:10152000AA02FFFEFC783000AA020001AA01010015
:10153000AA02003078FCFEFFAA02FF00FFAA51FFBA
:1015400000FFAA02FFFEF9F7EFDFAA02DF9F8F87F5
:1015500083C0AA02C0E0F0F8FCFFAA01FFF7E3C1D4
:1015600080C0E0F0F8FCFEAA01FEFCF8F0E0C080CC
:10157000C1E3F7FF007FAA517F0001000A0005D0F8
:101580000E949B0C00FC0CD008950024E89457FFA7
:1015900002C009D0689400F80BD010F80124089517
:1015A00002D009D00895509540954F5F5F4F089540
:1015B000E89417FF0895009510950F5F1F4F6894EA
:1015C00008950E94AE0C802D11F002D0FACF08953C
:1015D0000C94810B3197F1F70895689462F808959F
:1015E000E89462F80895EF93FF93EE27E82BE92B38
:1015F00031F0E0EDF7E03197F1F70197D1F7FF9186
:10160000EF91089544271FD0C098C49AC39884E6E8
:1016100099270E94F30A9FEF91BBC09A39D0C598D1
:1016200040D014FCFBCF07D04FEF0DD031D0C59880
:1016300038D014FCFBCF8FE30FD080EC0DD080E4CA
:101640000BD088EB09C0403420F0C19AC2984054B6
:101650000895C29AC19808951BD0C59802C018D0A9
:10166000C59A82BBC4980000000000000000000082
:101670000000000000000000C39A0000000000000D
:10168000000000000000000000000000C398089562
:101690001F92C59806D017FCFCCF1F900895F8DF65
:1016A000C59A992791BB9FEF92BBC49A0000000096
:1016B0000000000000000000000000000000C39ACD
:1016C000000000000000000000000000000000001A
:1016D000000010B2C39891BB08954427B4DF02D034
:1016E0004FEFB1DF00E080E4B7DF88EB800FB4DFBD
:1016F00010E48827B4DF1A95E1F70395083099F7CD
:101700000895EF93FF93509162005F937090630090
:10171000E0916000F09161000E94AE0C202D0E94CB
:10172000AE0C302D0E94AE0C002D0E94AE0C8052EB
:10173000482F0E94D80CE40FF51F70926300B32E5F
:1017400040916300509162001DD00E94AE0C802D2C
:1017500050916400552309F0809581DF509163001A
:10176000539550936300BA9459F750916200539582
:10177000509362002A9509F75F9150936200FF91A0
:10178000EF9108954A955A955EDF88EB850F64DFE7
:1017900080E4840F61CF0F921F922F923F920F939C
:1017A0009F934F93052F48E00E94E40C082E4F9121
:1017B000502F242E352EE8DF72DF71DF422D532D9E
:1017C000E3DF802D0E94B20C0F91002311F0182A44
:1017D00001C01922812D43DF0F913F902F901F9060
:1017E0000F900895BB2021F0AA27BB270C94CE0CA4
:1017F0000C94AE0C112422243324B9900E94F20BD5
:10180000002D48E00E94E40C0A930E94F20B0A9219
:101810000A920B8148E00E94E40C0B834C81F42E69
:101820005B81B2DF131479F40E94F20B202C802D1F
:101830008A3A39F00E94F20B802D8A3A39F03197BA
:101840000DC031960BC01A9469F308C00E94F20BC8
:10185000802D882311F4329701C0102C822D909195
:101860006400992309F080958F934F2D5B818CDF65
:101870008F91F394F4DE89818A95898399F68B811F
:1018800083958B83888189838A818A958A8331F6BF
:10189000259608950F931F934F935F938F939F9374
:1018A000EF93FF93CC24EE24FF24B72EF991E99116
:1018B000999119910991015010409030A1F0003098
:1018C0001C0599F0EF93FF939A95990FE90FFC1D72
:1018D00031960E94AE0C502D0E94AE0C402D0E94FD
:1018E0009B0CFF91EF91E00EF11EBA9409F787016E
:1018F000EF93FF930E94AE0C402D5527413011F01D
:101900000E949B0C7801FF91EF91FF91EF919F91C5
:101910008F915F914F911F910F910895481A590A25
:101920000895481A8827580A089599275A924A9282
:10193000480E591E08950F92B801469F8001479F97
:10194000100D569F100D0F900895369A3699FECFC0
:10195000369A3699FECF84B195B10895C8953196DF
:101960000020089591E0882321F08894991F8A959A
:10197000E9F7892F90950895883018F011968850CE
:10198000FBCF089594E081918D939A95E1F70895A6
:10199000E199FECFEEBBFFBB3196089591E001C007
:1019A00092E0F6DFE09A8DB38D939A95D1F7089582
:1019B000FF935527F8E0469508F4500F5795479543
:1019C000FA95D1F7FF910895FF93881BF9E0001F66
:1019D000FA9511F4FF910895881F841B18F4840F61
:1019E0008894F5CF0894F3CF403059F0002E415041
:1019F000403009F40895642F402DDADF042F462F7C
:101A0000F6CF01E00895B7FE089590E8B91611F4F5
:101A1000D0FE08959FEFD91AE90AF90A09F403954F
:101A20000895D190E190F190019108952191319123
:101A3000419151910895502F2D2D3E2D4F2D612F05
:101A40000895EFDF992711278F2D880F80E8F82A56
:101A5000802F881F08F41FEF41F08F57082F07FDD4
:101A600004C0003240F08FEF01C08827982FD82E95
:101A7000E82EF82E09C08FE1801B082FF694E7941A
:101A8000D79497950A95D1F7112351F09095D0945A
:101A9000E094F09481E0980F8827D81EE81EF81E85
:101AA0000F2DFE2CED2CD92E0895652F90E8440FB4
:101AB000551F5927990F47956078102F90E8FF0C14
:101AC000001F0927990FF794107800380895FF0C2C
:101AD00090E89027110F9795F794092F08951127F3
:101AE000BD2CDE2CEF2CF02E0EE1FF2039F4FE2C65
:101AF000ED2CDB2CBB240850C2F752C032F00A9503
:101B0000BB0CDD1CEE1CFF1CF9CF7DDFE0CF2DEC04
:101B10003CEC4CEC5DE366270FC083DF8CDFDD24FB
:101B2000EE2490E8F92E0FE307C080DF05C02227DE
:101B3000332740E251E46627552351F1002381F118
:101B4000B4DF71F11627005850580894050B18F4AB
:101B500007FD03C025C007FD23C04695379527958F
:101B6000F694E794D79422D0FF202AF0DD0CEE1CE7
:101B7000FF1C015073F09D2D969548F0DD203AF43E
:101B8000EE202AF491E0D90E9927E91EF91E9FCF85
:101B900007C09FE7092FF92A9FEFD92EE92E089554
:101BA000DD24EE24FF240027112708959F92992415
:101BB000AA24BB2488E1D216E306F40628F0D21A40
:101BC000E30AF40A089401C08894991CAA1CBB1C5F
:101BD000DD0CEE1CFF1C8A9571F7D92CEA2CFB2C2E
:101BE0009F9008950E94AE0C202D0E94AE0C302DC7
:101BF0000E94AE0C402D0E94AE0C502D08950000A6
:101C000000430000804220202020202B5361766575
:081C10006420202020200000C8
:00000001FF
