:100000000C942A001895000018950000189500001F
:10001000189500001895000018950000189500002C
:10002000189500001895000018950000189500001C
:10003000189500001895000018950000189500000C
:1000400018950000189500001895000018950000FC
:10005000189500008FE58DBFC0E2E8EB4E2E88E0DA
:100060008EBFD8E0F7E05F2EA89584B7082E877F73
:1000700084BF88E1992781BD91BDEEEFF7E0A0E64E
:10008000B0E088278D933197E9F7662401080800CE
:1000900000000000000000000000065F06000000F5
:1000A000000703000703000000247E247E240000D4
:1000B00000242B6A12000000006313086463000030
:1000C00000364956205000000000070300000000E1
:1000D00000003E41000000000000413E0000000022
:1000E00000083E1C3E0800000008083E080800000A
:1000F0000000E06000000000000808080808000098
:1001000000006060000000000020100804020000F1
:10011000003E5149453E00000000427F4000000083
:100120000062514949460000002249494936000011
:10013000001814127F100000002F494949310000B7
:10014000003C4A49493000000001710905030000E4
:10015000003649494936000000064949291E000079
:1001600000006C6C000000000000EC6C000000005F
:10017000000814224100000000242424242400004C
:100180000000412214080000000201590906000085
:10019000003E415D551E0000007E1111117E0000E1
:1001A000007F494949360000003E4141412200009C
:1001B000007F4141413E0000007F49494941000024
:1001C000007F090909010000003E4149497A000009
:1001D000007F0808087F00000000417F4100000008
:1001E00000304040403F0000007F081422410000E2
:1001F000007F404040400000007F0204027F00007A
:10020000007F0204087F0000003E4141413E0000A3
:10021000007F090909060000003E4151215E0000EF
:10022000007F09091966000000264949493200008B
:100230000001017F01010000003F4040403F0000FD
:10024000001F2040201F0000003F403C403F0000B6
:10025000006314081463000000070870080700001A
:10026000007149454300000000007F41410000004B
:100270000002040810200000000041417F0000003F
:100280000004020102040000808080808080808061
:1002900000000307000000000020545454780000C0
:1002A000007F44444438000000384444442800009F
:1002B00000384444447F000000385454540800007F
:1002C00000087E09090000000018A4A4A47C000016
:1002D000007F0404780000000000007D4000000062
:1002E000004080847D000000007F10284400000052
:1002F0000000007F40000000007C0418047800002B
:10030000007C0404780000000038444444380000B5
:1003100000FC4444443800000038444444FC0000DD
:10032000004478440408000000085454542000009D
:1003300000043E4424000000003C40207C000000FB
:10034000001C2040201C0000003C6030603C00008D
:10035000006C10106C000000009CA0603C000000CD
:10036000006454544C00000000083E41410000006D
:100370000000007700000000000041413E0800003E
:100380000002010201000000003C2623263C000080
:10039000001EA1E121120000003D40207D00000070
:1003A0000038545455090000002055555578000078
:1003B0000020555455780000002055555478000011
:1003C0000020575557780000001CA2E222140000BC
:1003D00000385555550800000038555455080000A0
:1003E00000385555540800000000017C4100000011
:1003F00000000279420000000000017C4000000083
:10040000007029242970000000782F252F78000023
:10041000007C5454554500000034547C545800006E
:10042000007E097F49490000003845453900000039
:1004300000384544390000000039454438000000C8
:10044000003C41217D000000003D41207C00000077
:10045000009CA1603D000000003D42423D000000C4
:10046000003C41403D0000000018246624000000CC
:1004700000483E494962000000292A7C2A290000E0
:10048000007F0916781000000040887E09020000F5
:1004900000205455557800000000007D4100000008
:1004A0000038444539000000003C40217D00000038
:1004B000007A090A71000000007A11227900000018
:1004C00000085555555E0000004E51514E00000089
:1004D0000030484D40200000003C040404040000AB
:1004E00004040404041C00000017084C6A500000B7
:1004F000001708342A7800000000307D300000002A
:10050000000814000814000000140800140800007B
:100510004411441144110000AA55AA55AA550000DF
:10052000BBEEBBEEBBEE0000000000FF00000000D1
:10053000080808FF000000000A0A0AFF0000000087
:1005400008FF00FF0000000008F808F800000000A5
:100550000A0A0AFE000000000AFB00FF000000007B
:1005600000FF00FF000000000AFA02FE0000000089
:100570000A0B080F00000000080F080F0000000021
:100580000A0A0A0F00000000080808F8000000002E
:100590000000000F080800000808080F0808000005
:1005A000080808F808080000000000FF080800001C
:1005B0000808080808080000080808FF08080000E4
:1005C000000000FF0A0A000000FF00FF080800000A
:1005D000000F080B0A0A000000FE02FA0A0A0000D7
:1005E0000A0B080B0A0A00000AFA02FA0A0A0000BB
:1005F00000FF00FB0A0A00000A0A0A0A0A0A0000B1
:100600000AFB00FB0A0A00000A0A0A0B0A0A000099
:10061000080F080F080800000A0A0AFA0A0A000070
:1006200008F808F808080000000F080F0808000084
:100630000000000F0A0A0000000000FE0A0A000085
:1006400000F808F80808000008FF00FF080800008C
:100650000A0A0AFB0A0A00000808080F0000000046
:10066000000000F808080000FFFFFFFFFFFF000088
:10067000F0F0F0F0F0F00000FFFFFF0000000000DD
:10068000000000FFFFFF00000F0F0F0F0F0F000013
:10069000001824241824000000FE4A4A34000000F8
:1006A000007F01010300000000027E027E020000C4
:1006B0000063554963000000001824241C04000056
:1006C00000FC20201C00000000080478040000004A
:1006D0000008557755080000003E49493E000000DB
:1006E000004C7202724C000000225559300000008C
:1006F00000182418241800000018247E2418000074
:10070000001C2A2A2A000000003C02023C000000D3
:10071000002A2A2A2A0000000000242E24000000BB
:1007200000514A4A4400000000444A4A5100000077
:10073000000000FC020400000020403F0000000018
:100740000008082A080800000024122412000000F3
:10075000000609090600000000001818000000004B
:1007600000000800000000000030403E02020000CF
:1007700000010E010E00000000090D0A000000003B
:10078000003C3C3C3C00000077B37F6377BB0E9499
:100790001608ECE8F0E0A0E6B0E0ED93FC934080B2
:1007A00000AA0100FEAA03FE02AA0702FEFA02FE48
:1007B000AA01FEFCF8F000AA080080C0603090C4D6
:1007C000CE1E3E7CF87000AA5600FFAA01FF07AAC1
:1007D000010706AA0A0607AA0207FFAA01FF00AA44
:1007E000010080203098CCE673399CCE6733190C19
:1007F000060300AA59001FAA011F1090AA0190D059
:10080000AA09D090AA0190101FAA011F00181F0F5B
:100810000C0D090006030100AA01008000AA5D007A
:10082000F8FEFFAA03FF7FAA017F01AA03017FAAA6
:10083000017FFFAA03FFFEF800AA040080C06070D9
:10084000F8FCFEFFAA02FFFEFCF8F0E04000AA560A
:10085000001F7FFFAA01FF9FAA029F9E9C98AA01EA
:10086000989C9E9FAA029FFFAA01FF7F1F00081C61
:100870003E73E1C080AA0280C1C3E7BF9F8F878318
:100880008180AA018000AA58008041212313AA0177
:10089000131B3B7BFBF3AA01F3E3E1C18000AA0237
:1008A0000040E0F0F8F0E1C18101AA030181C1E15B
:1008B000F1F9F1E14100AA560030CE0100AA08008A
:1008C00003FFAA05FF7000AA0200010387CFFFAA59
:1008D00002FFFEAA01FEFFAA02FFCF87030100AAC2
:1008E00059000106081020AA02206070787C3FAAF7
:1008F000023F1F0F070300AA0100081C3E7F3F1F95
:100900000F070301AA010103070F1F3F7F3E1C08C9
:1009100000AA54000E948C0480E08A9380E08A93AD
:1009200080E08A93EEE9F7E08827809364000E94D4
:100930000E090C94990408950E94A9048AE090E09D
:100940000E9407080E94C1048AE090E00E94070804
:100950000895D09AD198D29AD398D89AD998DA98FB
:10096000DB9886E886B980E087B9379A07B1007EC0
:10097000016007B90E947009A5E6B0E08D939C93D1
:100980000895D098D19AD298D39AD898D99ADA98CB
:10099000DB9886E886B980E087B9379A07B1007E90
:1009A000026007B90E947009A7E6B0E08D939C939E
:1009B00008950E948108AA81BB814C91A881B981C8
:1009C0005C919FEF0E94DF08AA81BB814C914F5F31
:1009D000A881B9815C919FEF0E94DF08AA81BB8149
:1009E0004C91A881B9815C915F5F9FEF0E94DF0805
:1009F000AA81BB814C914F5FA881B9815C915F5FF7
:100A00009FEF0E94DF08089580E090E0D2018D936F
:100A10009C9382E00E946A0980E090E0D2018D936D
:100A20009C9382E00E946A090E94D904249684E083
:100A30000E9466090E949C04A5E6B0E00D911C91FD
:100A4000023350E0150718F011F00C9429050C94AE
:100A50001A0582E390E00E9407080E949C04A5E624
:100A6000B0E08D919C91ADE6B0E08D939C93A7E6AC
:100A7000B0E08D919C91A5E7B0E08D939C930E948E
:100A8000810885E08093620081E08093630080E0CC
:100A900080936400E4E3F6E10E94F5070E949C0461
:100AA000A5E6B0E00D911C91023350E0150708F067
:100AB000F5CF08958EE790E0D2018D939C9382E06C
:100AC0000E946A0980E090E0D2018D939C9382E0BD
:100AD0000E946A090E94D904249684E00E94660953
:100AE0000E949C04A5E6B0E00D911C91023350E0F9
:100AF000150718F011F00C947F050C94700582E333
:100B000090E00E9407080E949C04A5E6B0E08D9149
:100B10009C91AFE6B0E08D939C930E94810885E0A4
:100B20008093620081E08093630080E080936400A2
:100B3000E4E3F6E10E94F5070E949C04A5E6B0E01C
:100B40000D911C91023350E0150708F0F5CF089580
:100B500080E090E0D2018D939C9382E00E946A092C
:100B60008EE390E0D2018D939C9382E00E946A090B
:100B70000E94D904249684E00E9466090E949C0485
:100B8000A7E6B0E00D911C91023350E0150718F074
:100B900011F00C94CD050C94BE0582E390E00E9408
:100BA00007080E949C04A7E6B0E08D919C91A7E7FE
:100BB000B0E08D939C930E94810885E08093620051
:100BC00081E08093630080E080936400E4E3F6E1D9
:100BD0000E94F5070E949C04A7E6B0E00D911C91CD
:100BE000023350E0150708F0F5CF08950E94040580
:100BF0000E945A050E94A805AFE6B0E04D915C91B5
:100C0000ADE6B0E00D911C910417150718F011F036
:100C10000C940C060C943006ADE6B0E00D911C91DE
:100C2000AFE6B0E04D915C91041B150BA9E7B0E075
:100C30000D931C93ECE2F6E10E94090BE9E7F0E06A
:100C4000D190E080FF2400270E94860A0E94B30A08
:100C5000EDE0F0E0A9E6B0E00E94E8090C9452064D
:100C6000AFE6B0E00D911C91ADE6B0E04D915C9126
:100C7000041B150BA9E7B0E00D931C93ECE2F6E121
:100C80000E94090BE9E7F0E0D190E080FF24002703
:100C90000E94860A0E94B30AEDE0F0E0A9E6B0E007
:100CA0000E94E809A7E7B0E04D915C91A5E7B0E0AC
:100CB0000D911C910417150718F011F00C946206A1
:100CC0000C948606A5E7B0E00D911C91A7E7B0E073
:100CD0004D915C91041B150BA9E7B0E00D931C939B
:100CE000E0E3F6E10E94090BE9E7F0E0D190E08053
:100CF000FF2400270E94860A0E94B30AEDE0F0E07C
:100D0000A1E7B0E00E94E8090C94A806A7E7B0E0CC
:100D10000D911C91A5E7B0E04D915C91041B150B62
:100D2000A9E7B0E00D931C93E0E3F6E10E94090B04
:100D3000E9E7F0E0D190E080FF2400270E94860AD6
:100D40000E94B30AEDE0F0E0A1E7B0E00E94E809FC
:100D500008950E9481080E949C04AFE6B0E04D9186
:100D60005C91ADE6B0E00D911C910417150710F0F1
:100D70000C94E406A5E6B0E00D911C91ADE6B0E060
:100D80004D915C91041B150BA9E7B0E00D931C93EA
:100D9000E9E6F0E00E942D0AE9E7F0E0D190E0807A
:100DA000FF2400270E94860A0E94B30AEDE0F0E0CB
:100DB000ABE7B0E00E94E809EBE7F0E00E94380AF8
:100DC000A5E6B0E0DD92EC92ADE6B0E04D915C912D
:100DD000AFE6B0E00D911C910417150710F00C94CC
:100DE0002707A5E6B0E00D911C91AFE6B0E04D916C
:100DF0005C91041B150BA9E7B0E00D931C93E9E689
:100E0000F0E00E942D0AE9E7F0E0D190E080FF24B5
:100E100000270E94860A0E94B30AEDE0F0E0ABE7EB
:100E2000B0E00E94E809EBE7F0E00E94380AA5E68E
:100E3000B0E0DD92EC9200E810E0A5E6B0E04D9164
:100E40005C91041B150BA5E6B0E00D931C93A7E77E
:100E5000B0E04D915C91A5E7B0E00D911C910417B5
:100E6000150710F00C945E07A7E6B0E00D911C91F9
:100E7000A5E7B0E04D915C91041B150BA9E7B0E02C
:100E80000D931C93E1E7F0E00E942D0AE9E7F0E002
:100E9000D190E080FF2400270E94860A0E94B30AB6
:100EA000EDE0F0E0ABE7B0E00E94E809EBE7F0E04E
:100EB0000E94380AA7E6B0E0DD92EC92A5E7B0E028
:100EC0004D915C91A7E7B0E00D911C9104171507B7
:100ED00010F00C94A107A7E6B0E00D911C91A7E7D4
:100EE000B0E04D915C91041B150BA9E7B0E00D93A8
:100EF0001C93E1E7F0E00E942D0AE9E7F0E0D190D1
:100F0000E080FF2400270E94860A0E94B30AEDE0D9
:100F1000F0E0ABE7B0E00E94E809EBE7F0E00E9408
:100F2000380AA7E6B0E0DD92EC9200E410E0A7E614
:100F3000B0E04D915C91041B150BA7E6B0E00D935A
:100F40001C93A5E6B0E00D911C91003850E0150708
:100F500081E008F080E08F93A7E6B0E00D911C914E
:100F6000003450E0150781E008F080E09F9189236C
:100F7000882311F40C94E80785E08093620081E0F7
:100F80008093630080E080936400E6E4F6E10E94D1
:100F9000F507A0EAB7E0E5E6F0E00E9495090E94B7
:100FA000ED07EAE4F6E10E94F507A0EAB7E0E7E61C
:100FB000F0E00E9495090E94ED07E0E5F6E10E944D
:100FC000F50740916500509167009FEF0E94DF0890
:100FD0000C94AB060895F894FFCFA0EAB7E08D918A
:100FE000882311F009D0FBCF08950E947909802D44
:100FF00011F002D0FACF08950C9495083197F1F7CB
:101000000895689462F80895E89462F80895EF935B
:10101000FF93EE27E82BE92B31F0E0EDF7E0319775
:10102000F1F70197D1F7FF91EF91089544271FD071
:10103000C098C49AC39884E699270E9407089FEF36
:1010400091BBC09A39D0C59840D014FCFBCF07D0D3
:101050004FEF0DD031D0C59838D014FCFBCF8FE3C3
:101060000FD080EC0DD080E40BD088EB09C0403469
:1010700020F0C19AC29840540895C29AC198089528
:101080001BD0C59802C018D0C59A82BBC498000076
:101090000000000000000000000000000000000050
:1010A000C39A0000000000000000000000000000E3
:1010B00000000000C39808951F92C59806D017FC41
:1010C000FCCF1F900895F8DFC59A992791BB9FEF39
:1010D00092BBC49A00000000000000000000000065
:1010E000000000000000C39A0000000000000000A3
:1010F0000000000000000000000010B2C39891BB87
:1011000008954427B4DF02D04FEFB1DF00E080E460
:10111000B7DF88EB800FB4DF10E48827B4DF1A95BF
:10112000E1F70395083099F70895EF93FF935091F5
:1011300062005F9370906300E0916000F091610045
:101140000E947909202D0E947909302D0E94790989
:10115000002D0E9479098052482F0E94FE09E40F59
:10116000F51F70926300B32E4091630050916200AE
:101170001DD00E947909802D50916400552309F0FB
:10118000809581DF50916300539550936300BA942A
:1011900059F7509162005395509362002A9509F7D0
:1011A0005F9150936200FF91EF9108954A955A958F
:1011B0005EDF88EB850F64DF80E4840F61CF0F92E0
:1011C0001F922F923F920F939F934F93052F48E0CA
:1011D0000E940A0A082E4F91502F242E352EE8DF48
:1011E00072DF71DF422D532DE3DF802D0E947D09D8
:1011F0000F91002311F0182A01C01922812D43DF1D
:101200000F913F902F901F900F900895BB2021F0D9
:10121000AA27BB270C94F4090C94790911242224E1
:101220003324B9900E940609002D48E00E940A0A62
:101230000A930E9406090A920A920B8148E00E94D2
:101240000A0A0B834C81F42E5B81B2DF131479F40C
:101250000E940609202C802D8A3A39F00E94060946
:10126000802D8A3A39F031970DC031960BC01A940F
:1012700069F308C00E940609802D882311F4329773
:1012800001C0102C822D90916400992309F0809563
:101290008F934F2D5B818CDF8F91F394F4DE8981E6
:1012A0008A95898399F68B8183958B83888189833D
:1012B0008A818A958A8331F6259608950191119144
:1012C000219130810895481A590A0895481A8827AB
:1012D000580A089599275A924A92480E591E08951D
:1012E000369A3699FECF369A3699FECF84B195B1AB
:1012F0000895C89531960020089591E0882321F043
:101300008894991F8A95E9F7892F90950895000F81
:10131000111F221F331F08950095109520953095B9
:101320000F5F1F4F2F4F3F4F0895019110810CC049
:101330000E945E090BC00191108117FF05C03FEFAD
:101340002FEF04C0008111272227332737FF03C066
:10135000E3DF8DE28D93CF92DF92EF92AA24BB243C
:10136000CC24DD24EE2440E2EAE0FF2755E093E3BD
:101370008081890F87FD9F7083FD907F891B8193FA
:101380005A95A9F7C4DFAA1CBB1CCC1CDD1CEE1CA3
:101390004A9551F7E894EFE0FF2782910CD0EB30AB
:1013A000E0F71EF068948A2D0AD088278D93EF907D
:1013B000DF90CF900895982F829501D0892F8F705C
:1013C000805D26F0803309F4089568948D93089524
:1013D00094E081918D939A95E1F70895E199FECF7C
:1013E000EEBBFFBB3196089591E001C092E0F6DFBD
:1013F000E09A8DB38D939A95D1F70895FF93552771
:10140000F8E0469508F4500F57954795FA95D1F7AF
:10141000FF910895FF93881BF9E0001FFA9511F4DE
:10142000FF910895881F841B18F4840F8894F5CFCA
:101430000894F3CFB7FE089590E8B91611F4D0FEE2
:1014400008959FEFD91AE90AF90A09F40395089556
:10145000D190E190F19001910895219131914191C4
:1014600051910895502F2D2D3E2D4F2D612F089510
:10147000EFDF992711278F2D880F80E8F82A802F1A
:10148000881F08F41FEF41F08F57082F07FD04C095
:10149000003240F08FEF01C08827982FD82EE82E19
:1014A000F82E09C08FE1801B082FF694E794D7949B
:1014B00097950A95D1F7112351F09095D094E09427
:1014C000F09481E0980F8827D81EE81EF81E0F2D93
:1014D000FE2CED2CD92E0895652F90E8440F551F52
:1014E0005927990F47956078102F90E8FF0C001F3F
:1014F0000927990FF794107800380895FF0C90E8A9
:101500009027110F9795F794092F08951127BD2C57
:10151000DE2CEF2CF02E0EE1FF2039F4FE2CED2C0A
:10152000DB2CBB240850C2F752C032F00A95BB0C2A
:10153000DD1CEE1CFF1CF9CF7DDFE0CF2DEC3CEC79
:101540004CEC5DE366270FC083DF8CDFDD24EE24E7
:1015500090E8F92E0FE307C080DF05C0222733276C
:1015600040E251E46627552351F1002381F1B4DFB5
:1015700071F11627005850580894050B18F407FD10
:1015800003C025C007FD23C0469537952795F694DF
:10159000E794D79422D0FF202AF0DD0CEE1CFF1C2C
:1015A000015073F09D2D969548F0DD203AF4EE2021
:1015B0002AF491E0D90E9927E91EF91E9FCF07C0A2
:1015C0009FE7092FF92A9FEFD92EE92E0895DD24F0
:1015D000EE24FF240027112708959F929924AA241E
:1015E000BB2488E1D216E306F40628F0D21AE30AF7
:1015F000F40A089401C08894991CAA1CBB1CDD0C39
:10160000EE1CFF1C8A9571F7D92CEA2CFB2C9F90BD
:1016100008950E947909202D0E947909302D0E9499
:101620007909402D0E947909502D0895000000434A
:101630000000804220202020202B5361766564200A
:10164000202020200000583A00002F20593A0000A6
:0616500020202020000014
:00000001FF
