:060000000C942D030C948A
:1000060059030C945A030C945B030C9400000C9453
:1000160000000C9400000C9400000C9400000C945A
:1000260000000C9400000C9400000C9400000C944A
:1000360000000C9400000C9400000C9400000C943A
:1000460000000C9400000C9400000C9400000507BE
:100056002060000000000000005F000000070007AD
:1000660000147F147F14242A7F2A12231308646243
:1000760036495522500005030000001C22410000AD
:1000860041221C00082A1C2A0808083E08080050BD
:10009600300000080808080800303000002010086A
:1000A60004023E5149453E00427F400042615149AB
:1000B600462141454B311814127F102745454539D5
:1000C6003C4A494930017109050336494949360612
:1000D6004949291E00363600000056360000000841
:1000E600142241141414141441221408000201515C
:1000F6000906324979413E7E1111117E7F494949EF
:10010600363E414141227F4141221C7F49494941B6
:100116007F090901013E414151327F0808087F00ED
:10012600417F41002040413F017F081422417F402A
:100136004040407F0204027F7F0408107F3E414119
:10014600413E7F090909063E4151215E7F09192971
:1001560046464949493101017F01013F4040403F40
:100166001F2040201F7F2018207F6314081463037C
:1001760004780403615149454300007F414102046C
:1001860008102041417F0000040201020440404063
:100196004040000102040020545454787F484444EF
:1001A600383844444420384444487F38545454181A
:1001B600087E090102081454543C7F0804047800A0
:1001C600447D40002040443D00007F10284400410B
:1001D6007F40007C041804787C0804047838444482
:1001E60044387C14141408081414187C7C0804047D
:1001F600084854545420043F4440203C4040207C4E
:100206001C2040201C3C4030403C44281028440C14
:100216005050503C4464544C4400083641000000A1
:100226007F0000004136080002010204027F4141BE
:10023600417F80004000FFFFFFFFFFFFFFFFFFFF42
:10024600FFFFFFFFFFFFFFFFFFFFFFFFFFFFFFFFB8
:10025600FFFFFFFFFFFFFFFFFFFFFFFFFFFFFFFFA8
:10026600FFFFFFFFFFFFFFFFFFFFFFFFFFFFFFFF98
:10027600FFFFFFFFFFFFFFFFFFFFFFFFFFFFFFFF88
:10063600FFFFFFFFFFFF000103070F1F3F7FFF00C4
:1006460001002D4E414E00494E4600000100800239
:1006560046060000F894EE27ECBBF1E0F5BFE5BFD7
:100666008DE0A2E0BB27ED938A95E9F780E098E05C
:10067600A0E6ED930197E9F7E2E5F6E0859195911D
:10068600009761F0A591B59105901590BF01F00115
:1006960005900D920197E1F7FB01F0CFEFE5EDBF75
:1006A600E8E0EEBFC0E6D2E00C945C03189518951E
:1006B60018952697EFEFEABBE0E0EBBBEBE7E7BB6D
:1006C600E4E0E8BBE0E0E4BBE5BBE1BBECE0E2BBB9
:1006D600E0E0E3BFE2BFECBFEFBDEEBDEDBDECBDBC
:1006E600E7BDE6BDEBBDEABDE9BDE8BDE2BDE5BDE2
:1006F600E4BDE3BDE9BFEBB7E06EEBBFEAE0E5BF03
:10070600E0E0E4BFE0EEEABFE0E0EAB9E0E8E8B93D
:10071600E0E0E0BFE6B9EDB9E6BFE4E5F0E0E88386
:10072600F983E0E0EA83EB83EC83ED83DE0190D08E
:10073600E0E0EA93EA93E8E3F2E0FA93EA93A2E0D0
:100746000E941C07FFCFFFCF0000C09A000008954B
:10075600C098C59AC69A08951A93F6DF19B3C09839
:10076600E12F19910895AA931A93E0E0EABBC19A82
:10077600C398A981E2E0EA1B1E2F10FF02C0C59AAA
:1007860001C0C59811FF02C0C69A01C0C698E4DF31
:10079600E078E9F718810C946F07AA93A981E3DF43
:1007A6000E94D7070C946F07E0917E02EA93E091CE
:1007B6007D02EF73E064AE2FF0DFE0917E02EA93F4
:1007C600E0917F02E86BAE2FE8DF0895AA93E981F6
:1007D600E0937D02E295EF70E695E695E0937E0262
:1007E600E881E0937F02E0DF0C946F07A0917D0221
:1007F600AF5FA0937D02A03818F0E0E0E0937D02A1
:10080600E0917D02EF7331F4E0917D02EA93A091CD
:100816007F02DCDF0895AA93A0917E02A4DFC39A2B
:100826000E94D70721960895A0917E029CDFE0E002
:10083600EABBC19AC39A90DF0895AA93E981EA9325
:10084600E9810E94E007F0DFAFDFEEDF0C946F076F
:10085600BA93AA931A93B89AB99ABB9ABC9AC49AAD
:10086600BD9ABE9A75DFC498A4E6B0E00E943E0821
:10087600C49A10E0123040F41A93AFE38EDF1A9355
:100886001395A0EC8ADFF6CFE1E0E0936002E0E0AA
:10089600E0936102E981FA813097A9F0A981BA81D2
:1008A6000E948008E0936402F093650212960E940B
:1008B6008008E0937902F0937A02A981BA811496AE
:1008C6000E9480080AC0E0E0F0E0E0936402F09342
:1008D6006502E0937902F0937A02E0937B02F0934B
:1008E6007C02E1E0E0936602E0936702E09368022F
:1008F600EFEFE0936902E1E0E0937002E1E7F2E0F6
:10090600FA93EA93EFEFEA93A8E0B0E00E94560765
:1009160004D0E1E018810C94B6070E94A70800E015
:1009260030E0E0916102E03009F00FEF383078F402
:10093600E0E0EA93A32F3F5F49DF10E0A12F1F5F9E
:10094600A03820F4A02F0E94E607F8CFEFCFE0E012
:10095600EA93A0E03BDFE0E0EA93A0E098D20E94B1
:10096600AE080C94D507AA931A93ED81EA93AD814C
:1009760064DF1E2F19DFE981E73011F0E83039F422
:10098600EB81EA93AA810E947107EB8308C0E330EA
:1009960021F4EB81E095EB8302C0E03021F4EA819B
:1009A600E0951E2302C0E23029F4EA81AB81EA23F6
:1009B6001E2B0EC0E13029F4EA81AB81EA231E2703
:1009C60007C0E43029F4EA81E095AB81EA2B1E23C7
:1009D600A12F0E94E607188126960895AA932397C9
:1009E6000E94A508A889A03848F4AF85A03430F441
:1009F600AE85A03019F0AD85A03009F4C8C1EE85EA
:100A0600E887A889BB27EE85F0E0AE0FBF1FA138A7
:100A1600E0E0BE0720F0A889E0E8EA1BEE872D8516
:100A2600AF85BB27ED85F0E0AE0FBF1FA134E0E038
:100A3600BE0720F0AF85E0E4EA1BED87A985A63066
:100A460009F05BC0EC85E13009F4A1C1E33039F46B
:100A5600E0917B02F0917C02309709F498C10885F9
:100A6600ED85E695E695E6953E2FE22FE77019F4BB
:100A7600AD852A17E9F0A02FBB27E32FF0E00E94EF
:100A86005808AA85BB850E94EA07269526952695CD
:100A9600532F5F935F5FE22FAF91EA1748F0102F55
:100AA600E12F1150E03019F00E94EF07F9CFF1CF96
:100AB600AE850A1711F1EE85AA85BB85F0E00E9486
:100AC600EA07ED85E77009F03F5F20E02F932F5F7F
:100AD600E32FAF91AE1788F41E851F931F5FE02F9B
:100AE600AF91AE1718F40E94EF07F7CFEE85AE81EF
:100AF600BF81F0E00E94EA07E9CFEF85E7703E2F5D
:100B0600ED85E03009F443C1EA85FB85EE83FF837A
:100B160010E00889303009F065C0AD85A83008F4CA
:100B26005CC0E985E03011F0E33009F402C0E7303B
:100B360009F402C0E83009F402C0E63009F402C044
:100B4600E93009F402C0EA3021F40A93E8890E94E8
:100B5600E0071F931F5FEE85AF91AE17B8F5A98525
:100B6600A63061F461DE20DE0E94FC07FA93EA9368
:100B76005BDEAE2F0E94B80739DE27C0E985E93073
:100B860011F450E00EC0EA3011F45FEF0AC00E9483
:100B9600FC070E9405085E2FE985E73011F0E83072
:100BA60021F40E940B085E2F06C0E33011F4509525
:100BB60002C0E03021F4A52F0E94E60706C00E947D
:100BC6000F08EFEFEA93AD85CEDEC3CFEF85E85F82
:100BD600EF87ED85E850ED87D1C05D8520E0E0E048
:100BE600ED877AC0E32FAD85AE0FA93020F42D85B1
:100BF600E0E0ED8703C0E8E0E31B2E2F3A93A22F37
:100C06000E9466074E2FE985E630F1F41F931F5FB9
:100C1600EE85AF91AE17B8F40E941508AE2FE32FFC
:100C26000E9450080E941C08E32FA42F0E9450081F
:100C3600E095E1215E2B0E94FC07FA93EA93A52F2B
:100C46000E94B807E3CF2CC0E93011F450E003C08E
:100C5600EA30A9F45FEF0E940B08AE2FE32F0E9443
:100C660048085E2F1F931F5FEE85AF91AE1730F4D5
:100C76000E940F084A93A0E076DEF4CF11C01F93BE
:100C86001F5FEE85AF91AE1758F40E942708AE2F6E
:100C9600E32F0E944808EA934A93AD8564DEEFCFBE
:100CA600ED85E03009F473C0AD85A83028F4ED85F4
:100CB600E21B5E2FE0E003C0532FED85E850ED8781
:100CC60010E0EF85E85FEF87E8E0E31B2E2F088949
:100CD600EA85FB85EE83FF83E52FF0E0E45CF94FC0
:100CE6004491E985E630F1F41F931F5FEE85AF91DD
:100CF600AE17B8F40E941508AE2FE22F0E944808DE
:100D06000E941C08E22FA42F0E944808E095E121CA
:100D16005E2B0E94FC07FA93EA93A52F0E94B80760
:100D2600E3CF2CC0E93011F450E003C0EA30A9F457
:100D36005FEF0E940B08AE2FE22F0E9450085E2F35
:100D46001F931F5FEE85AF91AE1730F40E940F0818
:100D56004A93A0E008DEF4CF11C01F931F5FEE8513
:100D6600AF91AE1758F40E942708AE2FE22F0E94CB
:100D76005008EA934A93AD85F6DDEFCFE885AA855C
:100D8600BB85F0E0EA0FFB1FEA87FB87B9CE0E941E
:100D9600AC08619608950E9434081CF0E0E0F0E08B
:100DA6009BC0A881B981A038E0E0BE071CF0EFE740
:100DB600F0E092C0E881F9818FC00E9434081CF0EF
:100DC600E0E0F0E089C0A881B981A034E0E0BE0788
:100DD6001CF0EFE3F0E080C0E881F9817DC0AA93C2
:100DE6001A93AA81A03818F4A981A03430F0E0E063
:100DF600F0E060E070E01881B6C0E981E7701E2F70
:100E0600E981E695E695E695E983103011F0EF5F06
:100E1600E983AA81BB2788279927E981FF276627C7
:100E260077270E946008EC5FFF4F6F4F7F4F188156
:100E36009AC0AA930E94A708AC81A53000F5ED815F
:100E4600FE8105910E943B0815910E943B08259161
:100E56000E943B083591ED83FE83E885EA93E88599
:100E6600EA930A932A93E1E0EA93EA85FB85FA93EB
:100E7600EA93AB85B3DD0A93A22FB1DF04C0E0E0AD
:100E8600F0E060E070E00E94AE0829960895AA930B
:100E9600A981BB2780DFE0936202A881BB278DDF93
:100EA600E093630219C0BA93AA93B981A8811096F8
:100EB60031F0FC81EB816A8161931197E9F7EB814F
:100EC600FC8125960895AA93E881F0E0E45CF94F49
:100ED600A491E9810E94480822960895AA931A933C
:100EE600E981E73011F0EA3019F41091600209C087
:100EF600E93019F41091610204C0E830A1F41091B0
:100F06007002E0916102E03049F0103019F0EFEF25
:100F1600188129C0EA81E095188125C0103019F49E
:100F2600E0E0188120C0EA8118811DC0BA93AA9317
:100F3600EA81E13021F4E881F981E49114C0E230DC
:100F460029F4A881B9810E9484080DC0E33041F4D8
:100F5600A881B981E0917902F0917A02099503C0DE
:100F6600A881B981EC9123960895AA93EB81E0308C
:100F760029F4E881A981BA81EC9314C0E23031F4F6
:100F8600E881A981BA810E9490080CC0E33051F42F
:100F9600E981FA81FA93EA93AA81E0917B02F091C2
:100FA6007C02099524960895C198EFEFEABBE88183
:100FB600EBBB0E94A7030C94AB03E695E695E6957A
:100FC600AE2F0C94E9030E940E040C94F903EA0F69
:100FD600FB1FEE83FF830895EC85EA93EF81F88586
:100FE6003196EF83F8873197FA93EA93A0E00C9451
:100FF600B807EC85EA93EF81F8853196EF83F88799
:101006003197089566277727DF01CB010C9499075E
:101016005A93AA850C9471070A930395E889EA9373
:101026005A9308950A930395A8890E942004E423FD
:1010360008955E2FEC85EA93AF81B88588279927B6
:101046000E9499071E2E08950A930395E889EA934C
:10105600EE85EA93E985FA853196E987FA8731972D
:10106600D1CFBA93AA93A881B9810E94A108089505
:10107600ED83FE830895109639F080ED97E0019791
:10108600F1F7A8951197C9F70895EE230E2EEA2FCA
:1010960019F0EE0F0A94E9F70895EE230E2EEA2FC3
:1010A60019F0E6950A94E9F70895FA9FF02DEB9F5B
:1010B600F00DEA9FE02DF10D08957A9F702D6B9F3C
:1010C600700DF89F700DE99F700D6A9F602D710D70
:1010D600FB9F600D711DE89F600D711D8827FA9FAB
:1010E600F02D610D781FEB9FF00D611D781FEA9FB3
:1010F600E02DF10D681F781F0895ED91FC91119771
:101106000895E199FECFFF93FFB7F894AEBBBFBB3E
:10111600E09AEDB3FFBFFF910895E19B02C0A89549
:10112600FCCF9FB7F894AEBBBFBBE09A8DB3E81770
:1011360019F0EDBBE29AE19A9FBF089500240A16C2
:101146000B0608955A934A933A932A931A930A934D
:1011560008955D814C813B812A811981088108951A
:00000001FF
